:100000000C9434000C9438030C9451000C9451005F
:100010000C9451000C9451000C9451000C9451001C
:100020000C9451000C9451000C94F9020C94510062
:100030000C9451000C9451000C9451000C945100FC
:100040000C9451000C9451000C9451000C945100EC
:100050000C9451000C9451000C9451000C945100DC
:100060000C9451000C94510011241FBECFEFD8E026
:10007000DEBFCDBF11E0A0E0B1E0EEE7FEE102C0DF
:1000800005900D92AE35B107D9F721E0AEE5B1E0AC
:1000900001C01D92A03AB207E1F70E94600B0C94D8
:1000A0003D0F0C94000048B121E030E0613059F080
:1000B000B90102C0660F771F8A95E2F7CB018095E0
:1000C000842388B90895B90102C0660F771F8A9505
:1000D000E2F7CB01842B88B9089580FD0BC04298CC
:1000E00081FD0BC0439882FD0BC0449883FD0BC07B
:1000F00045980895429A81FFF5CF439A82FFF5CF44
:10010000449A83FFF5CF459A0895409880FD19C021
:10011000429881FD19C0439882FD19C0449883FD1F
:1001200019C04598419A8FE99FE00197F1F700C007
:10013000000041988FE99FE00197F1F700C00000AF
:100140000895429A81FFE7CF439A82FFE7CF449A0E
:1001500083FFE7CF459AE6CF40984298439844986A
:100160004598419A8FE99FE00197F1F700C00000A0
:1001700041988FE99FE00197F1F700C00000409897
:10018000429A439844984598419A8FE99FE0019795
:10019000F1F700C0000041988FE99FE00197F1F767
:1001A00000C000000895882309F44FC08130B9F1E0
:1001B000409890FD3FC0429891FD3FC0439892FD0A
:1001C0003FC0449893FD3FC04598419A8FE99FE016
:1001D0000197F1F700C0000041988FE99FE0019777
:1001E000F1F700C00000409820FD3FC0429821FD7B
:1001F0003AC0439822FD32C0449823FD32C045984E
:10020000419A8FE99FE00197F1F700C00000419803
:100210008FE99FE00197F1F700C00000089590EC8E
:10022000960F9595959595959595262F2F704098B5
:1002300090FFC1CF429A91FFC1CF439A92FFC1CFA5
:10024000449A93FFC1CF459AC0CF90E8960F9595F9
:10025000959595959595262F2F70AACF449A23FFB3
:10026000CECF459ACDCF439AC5CF429AC0CF4298C0
:100270004398449845982FEF89EF90E021508040B3
:100280009040E1F700C000004098429A439A449899
:100290004598419A8FE99FE00197F1F700C000006F
:1002A00041988FE99FE00197F1F700C000008FE1CE
:1002B0009EE40197F1F700C000004098429A439AEB
:1002C00044984598419A8FE99FE00197F1F700C063
:1002D000000041988FE99FE00197F1F700C000000E
:1002E0008FED9BEA0197F1F700C000004098429A19
:1002F000439A44984598419A8FE99FE00197F1F716
:1003000000C0000041988FE99FE00197F1F700C01D
:10031000000040984298439A44984598419A8FE942
:100320009FE00197F1F700C0000041988FE99FE03E
:100330000197F1F700C0000040984298439A449812
:100340004598419A8FE99FE00197F1F700C00000BE
:1003500041988FE99FE00197F1F700C000004098B5
:10036000429843984498459A419A8FE99FE00197B3
:10037000F1F700C0000041988FE99FE00197F1F785
:1003800000C0000040984298439844984598419A8C
:100390008FE99FE00197F1F700C0000041988FE9D5
:1003A0009FE00197F1F700C0000040984298439801
:1003B000449A459A419A8FE99FE00197F1F700C06E
:1003C000000041988FE99FE00197F1F700C000001D
:1003D00040984298439844984598419A8FE99FE005
:1003E0000197F1F700C0000041988FE99FE0019765
:1003F000F1F700C0000040984298439A449A45980B
:10040000419A8FE99FE00197F1F700C00000419801
:100410008FE99FE00197F1F700C000000895409A2E
:10042000982F959595959595959590FD2DC0429809
:1004300091FD2DC0439892FD2DC04498987069F5A8
:100440004598419A95E09A95F1F70000419895E01A
:100450009A95F1F7000080FD29C0429881FD24C0E3
:10046000439882FD1CC0449883FD1CC04598419A66
:1004700085E08A95F1F7000041988FE891E00197B7
:10048000F1F700C000000895429A91FFD3CF439A3C
:1004900092FFD3CF449A987099F2459AD2CF449A5A
:1004A00083FFE4CF459AE3CF439ADBCF429AD6CF7E
:1004B000FC019081992309F44DC031962FC04298D8
:1004C00021FD37C0439822FD37C044982870B9F504
:1004D0004598419A85E08A95F1F70000419885E0BA
:1004E0008A95F1F7000090FD33C0429891FD2EC02F
:1004F000439892FD26C0449893FD26C04598419AA2
:1005000095E09A95F1F7000041988FE891E0019706
:10051000F1F700C0000091919923E1F0409A292F52
:10052000259525952595259520FFC9CF429A21FF30
:10053000C9CF439A22FFC9CF449A287049F2459AFD
:10054000C8CF449A93FFDACF459AD9CF439AD1CFF7
:10055000429ACCCF08954098429A4398449845983F
:10056000419A8FE99FE00197F1F700C000004198A0
:100570008FE99FE00197F1F700C000004098429892
:100580004398449A459A419A8FE99FE00197F1F781
:1005900000C0000041988FE99FE00197F1F700C08B
:1005A000000008954098429A439844984598419A8B
:1005B0008FE99FE00197F1F700C0000041988FE9B3
:1005C0009FE00197F1F700C00000409842984398DF
:1005D0004498459A419A8FE99FE00197F1F700C04E
:1005E000000041988FE99FE00197F1F700C00000FB
:1005F00008951F920F920FB60F9211242F933F93DD
:100600008F939F93EF93FF9380915E01882329F14D
:1006100080916A018823E1F0873060F420918600A0
:1006200030918700E82FF0E0EE0FFF1FEF57FE4FED
:10063000318320838F5F80936A01FF91EF919F91B7
:100640008F913F912F910F900FBE0F901F90189593
:100650001092850010928400EDCF809186009091D9
:1006600087009093800180937F0180916A01E2CF9F
:100670001F920F920FB60F9211248F9381E08093F7
:1006800081018F910F900FBE0F901F901895AC01B4
:100690004098429843984498459A419A8FE99FE040
:1006A0000197F1F700C0000041988FE99FE00197A2
:1006B000F1F700C0000040984298439A449845984A
:1006C000419A8FE99FE00197F1F700C0000041983F
:1006D0008FE99FE00197F1F700C00000E1E0F1E051
:1006E0009DE42FC0429831FD37C0439832FD37C09A
:1006F00044983870B9F54598419A25E02A95F1F764
:100700000000419885E08A95F1F7000090FD33C024
:10071000429891FD2EC0439892FD26C0449893FDC7
:1007200026C04598419A95E09A95F1F700004198C6
:100730008FE891E00197F1F700C0000091919923B3
:10074000E1F0409A392F359535953595359530FF3F
:10075000C9CF429A31FFC9CF439A32FFC9CF449AD9
:10076000387049F2459AC8CF449A93FFDACF459A38
:10077000D9CF439AD1CF429ACCCF81E080938201E6
:100780009A01369527953695279536952795ABE7A7
:10079000B4E10E94390CAC015695479541155105BD
:1007A00009F4DBC080918101882371F1D7C0409AA0
:1007B0004298439A44984598419A95E09A95F1F762
:1007C0000000419825E02A95F1F700004298439AED
:1007D000449A459A419A85E08A95F1F7000041983C
:1007E0008FE891E00197F1F700C0000020918201AD
:1007F0002F5F2093820130E04217530708F4ADC009
:10080000909181019111A9C09FEF23EC89E0915053
:1008100020408040E1F700C0000090918201937079
:1008200031F64098429843984498459A419A8FE906
:100830009FE00197F1F700C0000041988FE99FE029
:100840000197F1F700C000004098429A439A4498FB
:10085000459A419A8FE99FE00197F1F700C00000A7
:1008600041988FE99FE00197F1F700C00000EBE0AD
:10087000F1E090E22FC0429821FD37C0439822FD5D
:1008800037C044982870B9F54598419A25E02A95D3
:10089000F1F70000419885E08A95F1F7000090FD9E
:1008A00033C0429891FD2EC0439892FD26C04498D3
:1008B00093FD26C04598419A95E09A95F1F700007E
:1008C00041988FE891E00197F1F700C00000919105
:1008D0009923E1F0409A292F259525952595259571
:1008E00020FFC9CF429A21FFC9CF439A22FFC9CF27
:1008F000449A287049F2459AC8CF449A93FFDACFB8
:10090000459AD9CF439AD1CF429ACCCF40984298BA
:1009100043984498459A419A8FE99FE00197F1F7EF
:1009200000C0000041988FE99FE00197F1F700C0F7
:1009300000004098429A439A4498459A419A8FE918
:100940009FE00197F1F700C0000041988FE99FE018
:100950000197F1F700C0000049CF089508954F9224
:100960005F926F927F928F929F92AF92BF92CF923F
:10097000DF92EF92FF92CF93DF9380917C008660AD
:1009800080937C0080917C008E7F80937C0080919E
:10099000810081608093810080918100897F8093B4
:1009A000810080E49CEAA7E2B0E0809398019093F4
:1009B0009901A0939A01B0939B0183E08093670112
:1009C0002898209A2FEF33ED90E32150304090404B
:1009D000E1F700C0000010926A01109285001092A9
:1009E0008400289AEFE7FEE33197F1F700C000009A
:1009F000209890916A0191113BC080917F01909164
:100A0000800108979093800180937F0180918100FD
:100A10008360809381008091810083708093810046
:100A200080E093E6AFE9B2E080939801909399015A
:100A3000A0939A01B0939B01109267012898209A85
:100A400088EE93E00E94470380918101882309F496
:100A50006AC1DF91CF91FF90EF90DF90CF90BF9070
:100A6000AF909F908F907F906F905F904F90089580
:100A700020917F0130918001203BF4E03F0708F492
:100A8000C2C1285031093093800120937F014098E2
:100A90004298439844984598419A8FE99FE001977E
:100AA000F1F700C000004198EFE9FFE03197F1F75E
:100AB00000C000004098429A439844984598419A53
:100AC0008FE99FE00197F1F700C000004198EFE93E
:100AD000FFE03197F1F700C000004098429843983A
:100AE0004498459A419A8FE99FE00197F1F700C039
:100AF00000004198EFE9FFE03197F1F700C00000F6
:100B000040984298439A44984598419A8FE99FE0CB
:100B10000197F1F700C000004198EFE9FFE031973D
:100B2000F1F700C00000CFE0D1E083E40E940F02A3
:100B300089918111FBCFC0907F01D0908001C114B9
:100B4000D10409F495C180916A01882309F4BFC1D9
:100B5000F8EECF16F3E0DF06E8F4809167018F5FCF
:100B600001C0892F9601220F331FCC0CDD1CCC0C49
:100B7000DD1CCC0CDD1CC20ED31E91E0980FF8EEEC
:100B8000CF16F3E0DF0668F380936701D09280010F
:100B9000C0927F01E12CF12C8090980190909901F6
:100BA000A0909A01B0909B01C701B601A5019401E4
:100BB0000E94170C20939001309391014093920171
:100BC00050939301243631054105510578F5C091C4
:100BD0006701CF5F8AE0482E512C612C712C01C037
:100BE000C82FC501B401A30192010E94170C49014D
:100BF0005A01C701B6010E94170C81E08C0F243600
:100C000031054105510560F3809298019092990158
:100C1000A0929A01B0929B01209390013093910190
:100C20004093920150939301C0936701283E83E063
:100C3000380741055105A8F0CA01B9012AE030E0A2
:100C400040E050E00E94170C2093900130939101F6
:100C5000409392015093930180916701815080935A
:100C600067013F932F9381E591E09F938F938FE6E8
:100C700091E09F938F930E94530C909167018BEAB0
:100C8000989F812D11248695282F220F820F981B63
:100C9000892F0F900F900F900F900F900F9009F0E9
:100CA00093C0409842984398449A459A419AEFE9F4
:100CB000FFE03197F1F700C0000041988FE99FE015
:100CC0000197F1F700C000004098429A4398449A77
:100CD0004598419AEFE9FFE03197F1F700C0000035
:100CE00041988FE99FE00197F1F700C000008091E3
:100CF0006F01882339F0C0E7D1E00E940F0289918B
:100D00008111FBCF809167018C3008F054C089308D
:100D100008F40CC1CCE2D1E08EE60E940F0289916A
:100D20008111FBCF96CE10926A011092850010922D
:100D30008400289AFFEF24E33CE0F150204030404B
:100D4000E1F700C00000209880916A0181119FCED8
:100D50008091810085608093810080918100857001
:100D60008093810080E09FE9A4E2B0E08093980145
:100D700090939901A0939A01B0939B0110926701FF
:100D80002898209A80E49FE10E9447038091810186
:100D900081115FCE10926A0110928500109284003A
:100DA000289A80EA9FE00E94470380918101811187
:100DB00050CE20986CCEC9E2D1E080E70E940F02AD
:100DC00089918111FBCF45CE44E050E0481B510989
:100DD0002EE08FE090E001C0232FDC01A159BE4F2F
:100DE000FD01319730813C93822F90E03FEF320F2D
:100DF000841795078CF720938201FC01E159FE4F7F
:100E00002EE220834ECF40EC5BE367E473E0409337
:100E100098015093990160939A0170939B0180937C
:100E200067012998219A2FEF31EE84E0215030405C
:100E30008040E1F700C0000010926A011092850026
:100E400010928400299AEFE7FEE33197F1F700C092
:100E50000000219820916A0180917F01909180018A
:100E600008979093800180937F01211110CECECD01
:100E7000409842984398449A459A419A8FE99FE056
:100E80000197F1F700C000004198EFE9FFE03197CA
:100E9000F1F700C0000040984298439A449A459860
:100EA000419A8FE99FE00197F1F700C00000419857
:100EB000EFE9FFE03197F1F700C00000CCE1D1E0AD
:100EC0008FE40E940F0289918111FBCFC2CD40981F
:100ED00042984398449A459A419A8FE99FE0019736
:100EE000F1F700C000004198EFE9FFE03197F1F71A
:100EF00000C0000040984298439A44984598419A0F
:100F00008FE99FE00197F1F700C000004198EFE9F9
:100F1000FFE03197F1F700C00000C1E2D1E084E5C5
:100F20000E940F0289918111FBCF93CD863060F42E
:100F3000833008F48ECDC2E3D1E08DE60E940F022B
:100F400089918111FBCF85CDCFE2D1E085E70E9469
:100F50000F0289918111FBCF7CCD4F925F926F92EE
:100F60007F928F929F92AF92BF92CF92DF92EF9239
:100F7000FF92CF93DF9380917C00876080937C0009
:100F80008091810081608093810080918100897FC0
:100F9000809381002FEF39E688E121503040804076
:100FA000E1F700C0000010926A01599A9AE09A9500
:100FB000F1F700C010928500109284005998AFEFAD
:100FC000B1EE24E0A150B0402040E1F700C00000A5
:100FD00040918D0150918E014115510509F4D3C105
:100FE00020918B0130918C012417350709F42BC314
:100FF000BA01621B730B09F4FFC26F3F8FEF7807D2
:1010000009F05BC34FEF5FEFE5E02115310509F40F
:10101000C5C18091890190918A012817390709F487
:1010200020C3281B390B4217530708F4FBC22617AD
:10103000370708F0B8C1B9019C01892B09F4B7C181
:1010400080918701909188012817390709F4F0C22F
:10105000281B390B4217530708F4DEC2261737073F
:1010600008F0AAC1B901009709F4A9C1209185012E
:10107000309186012817390709F4FDC2821B930BB2
:101080004817590708F4C2C28617970708F09CC191
:10109000BC012115310509F09BC1E0E010928201ED
:1010A000E0938F015093660140936501709369014D
:1010B0006093680140984298439844984598419AB3
:1010C000AFE9BFE01197F1F700C0000041988FE948
:1010D0009FE00197F1F700C000004098429A4398C2
:1010E00044984598419AAFE9BFE01197F1F700C0E5
:1010F000000041988FE99FE00197F1F700C00000E0
:101100004098429843984498459A419AAFE9BFE085
:101110001197F1F700C0000041988FE99FE0019717
:10112000F1F700C0000040984298439A44984598CF
:10113000419AAFE9BFE01197F1F700C00000419874
:101140008FE99FE00197F1F700C00000C5E3D1E00F
:1011500089E40E940F0289918111FBCF20918F01B8
:10116000E22FF0E0EE0FFF1FED57FE4F608171811F
:101170008091830190918401681B790B80E090E05D
:1011800030E040E050E00E94170CCA01B901209302
:101190009C0130939D0140939E0150939F010E94BA
:1011A000070C4B015C0160936B0170936C018093A1
:1011B0006D0190936E01C0E090E8C92E9AEBD92E94
:1011C00095E9E92E9EE3F92E2AE0422E512C612C5E
:1011D000712C01C0C82FC701B601A30192010E9462
:1011E000170C69017A01C501B4010E94170C81E056
:1011F0008C0F243631054105510560F3C0929801EA
:10120000D0929901E0929A01F0929B01209394016F
:101210003093950140939601509397018093670115
:10122000283E93E039074105510590F0CA01B90104
:101230002AE030E040E050E00E94170C2093940137
:10124000309395014093960150939701C0936701A5
:101250003F932F9381E591E09F938F938FE691E0E9
:101260009F938F930E94530C909167018BEA989FF4
:10127000812D11248695282F220F820F981B892FEC
:101280000F900F900F900F900F900F9009F095C155
:10129000409842984398449A459A419AAFE9BFE0F2
:1012A0001197F1F700C0000041988FE99FE0019786
:1012B000F1F700C000004098429A4398449A45983C
:1012C000419AAFE9BFE01197F1F700C000004198E3
:1012D0008FE99FE00197F1F700C00000809168015D
:1012E0009091690140919C0150919D0160919E01F6
:1012F00070919F016C01E12CF12C4C155D056E0580
:101300007F0508F479C0C0906501D0906601E12C9A
:10131000F12CC416D506E606F70608F478C0892B2A
:1013200009F477C080916F01882339F0C0E7D1E0DC
:101330000E940F0289918111FBCF80916701893052
:1013400008F4A4C1C1E4D1E08EE60E940F028991A5
:101350008111FBCFE3E8F1E08CE0DF011D928A957B
:10136000E9F786E080938201DF91CF91FF90EF90C3
:10137000DF90CF90BF90AF909F908F907F906F90B5
:101380005F904F9008956FEF7FEFE4E020918B0125
:1013900030918C012115310509F03BCEE3E08091BD
:1013A000890190918A019C01892B09F049CEE2E0E4
:1013B0008091870190918801009709F057CEE1E074
:1013C00020918501309186012115310509F465CE02
:1013D00080918301909184018217930709F45DCE77
:1013E000281B390B4217530708F40AC12617370781
:1013F00008F054CEB90152CE019659F4CCE1D1E0B7
:101400008FE40E940F0289918111FBCFA3CF019637
:10141000A9F340984298439844984598419A8FE997
:101420009FE00197F1F700C000004198AFE9BFE0ED
:101430001197F1F700C000004098429A43984498F1
:101440004598419A8FE99FE00197F1F700C00000AD
:101450004198AFE9BFE01197F1F700C00000409854
:10146000429843984498459A419A8FE99FE00197A2
:10147000F1F700C000004198AFE9BFE01197F1F724
:1014800000C0000040984298439844984598419A7B
:101490008FE99FE00197F1F700C000004198AFE9A4
:1014A000BFE01197F1F700C00000809188018F9391
:1014B000809187018F93809186018F938091850120
:1014C0008F93809184018F93809183018F9389E41E
:1014D00091E09F938F938FE691E09F938F930E946B
:1014E000530C80916F012DB73EB7265F3F4F0FB66B
:1014F000F8943EBF0FBE2DBF882339F0C0E7D1E07E
:101500000E940F0289918111FBCF40984298439825
:10151000449A459A419A8FE99FE00197F1F700C0FC
:1015200000004198AFE9BFE01197F1F700C000005B
:1015300040984298439844984598419A8FE99FE093
:101540000197F1F700C000004198AFE9BFE01197A3
:10155000F1F700C0000080918E018F9380918D0182
:101560008F9380918C018F9380918B018F938091C9
:101570008A018F93809189018F9389E491E09F93F1
:101580008F938FE691E09F938F930E94530C8091ED
:101590006F012DB73EB7265F3F4F0FB6F8943EBFA1
:1015A0000FBE2DBF882309F4D5CEC0E7D1E00E943D
:1015B0000F0289918111FBCFCDCE44E050E0481B52
:1015C00051092EE08FE090E001C0232FDC01A159EA
:1015D000BE4FFD01319730813C93822F90E03FEF69
:1015E000320F841795078CF720938201FC01E15993
:1015F000FE4F2EE220834CCE40E050E0E5E005CDEA
:10160000A9012617370708F049CDF4CEAC0186179B
:10161000970708F0D9CE3CCDA9012617370708F067
:10162000CBCE20CDA9012617370708F0BCCE03CDBD
:10163000C901E2E020918501309186012817390720
:1016400009F01CCD18C09A016FEF7FEF40E050E029
:10165000E4E08091890190918A012817390709F007
:10166000E0CCE3E080918701909188012817390749
:1016700009F0EECCDDCF9C01E1E0809183019091F7
:1016800084018217930709F0ABCE07CD863060F452
:10169000833008F45FCEC7E4D1E08DE60E940F02EC
:1016A00089918111FBCF56CEC4E4D1E085E70E9439
:1016B0000F0289918111FBCF4DCEAB01E5E0A5CCA6
:1016C000519A59988FE387B90E94370180E00E94B0
:1016D000850081E00E94850088EF0E94850084E0FB
:1016E0000E948500E5E5F1E08CE42FC0429891FD71
:1016F00037C0439892FD37C044989870B9F5459823
:10170000419A95E09A95F1F70000419895E09A95F5
:10171000F1F7000080FD33C0429881FD2EC0439850
:1017200082FD26C0449883FD26C04598419A85E0F5
:101730008A95F1F7000041988FE891E00197F1F761
:1017400000C0000081918823E1F0409A982F959580
:1017500095959595959590FFC9CF429A91FFC9CFE0
:10176000439A92FFC9CF449A987049F2459AC8CFDC
:10177000449A83FFDACF459AD9CF439AD1CF429A80
:10178000CCCF8FB780688FBF80B78F7780BF80B78F
:101790008F7B80BF80917B00806480937B008091F1
:1017A0007A008F7780937A0080B7846080BF8091C1
:1017B0006400877F8093640080916F0080628093D3
:1017C0006F0080916900826080936900E89A80913F
:1017D0005E010AC0813021F40E94AD0780915E0154
:1017E0009091810191110AC08111F4CF0E94AF0440
:1017F00080915E01909181019923B1F391E0811173
:1018000090E0892F90935E0110928101EDCFDB0172
:101810008F939F930E94480CBF91AF91A29F800D20
:10182000911DA39F900DB29F900D11240895A1E2E8
:101830001A2EAA1BBB1BFD010DC0AA1FBB1FEE1F4A
:10184000FF1FA217B307E407F50720F0A21BB30B95
:10185000E40BF50B661F771F881F991F1A9469F711
:1018600060957095809590959B01AC01BD01CF016D
:101870000895A29FB001B39FC001A39F700D811D69
:101880001124911DB29F700D811D1124911D089589
:101890000E94390CA59F900DB49F900DA49F800DC0
:1018A000911D11240895AEE0B0E0E9E5FCE00C9450
:1018B000140F0D891E8986E08C831A8309838FEFAC
:1018C0009FE79E838D83AE01475E5F4F6F89788D62
:1018D000CE0101960E94750CEF81F885E00FF11F93
:1018E00010822E96E4E00C94300FABE0B0E0EBE712
:1018F000FCE00C94060F6C017B018A01FC0117824D
:101900001682838181FFCCC1CE0101963C01F60194
:101910009381F70193FD859193FF81917F01882346
:1019200009F4BAC1853239F493FD859193FF819111
:101930007F01853229F4B60190E00E946C0EE7CF5A
:10194000912C212C312CFFE1F315D8F08B3279F05A
:1019500038F4803279F08332A1F4232D20611DC048
:101960008D3261F0803369F4232D216016C0832D00
:101970008260382EE32DE4603E2E2AC0F32DF860FD
:101980001DC037FC2DC020ED280F2A3040F08E32CC
:10199000B9F436FC81C1232D2064322E19C036FEE5
:1019A00006C08AE0989E200D1124922E11C0EAE014
:1019B0002E9E200D1124222EF32DF0623F2E08C002
:1019C0008C3621F4832D8068382E02C0883641F48D
:1019D000F70193FD859193FF81917F018111B3CF31
:1019E000982F9F7D9554933028F40C5F1F4F9FE3F1
:1019F00099830DC0833631F0833771F0833509F058
:101A000059C021C0F801808189830E5F1F4F88244F
:101A10008394912C530113C02801F2E04F0E511C06
:101A2000F801A080B18036FE03C0692D70E002C0CD
:101A30006FEF7FEFC5010E94610E4C018201F32D13
:101A4000FF773F2E16C0280122E0420E511CF801FC
:101A5000A080B18036FE03C0692D70E002C06FEF38
:101A60007FEFC5010E94560E4C01F32DF0683F2E0A
:101A7000820133FC1BC0822D90E088169906B0F4D9
:101A8000B60180E290E00E946C0E2A94F4CFF5013A
:101A900037FC859137FE81915F01B60190E00E948D
:101AA0006C0E21102A9421E0821A9108811491046D
:101AB00071F7E8C0843611F0893641F5F80137FE38
:101AC00007C060817181828193810C5F1F4F08C0C4
:101AD00060817181072E000C880B990B0E5F1F4FE0
:101AE000F32DFF763F2E97FF09C090958095709556
:101AF00061957F4F8F4F9F4FF0683F2E2AE030E077
:101B0000A3010E94A80E882E861845C0853731F49F
:101B1000232D2F7EB22E2AE030E025C0932D997F11
:101B2000B92E8F36C1F018F4883579F0B5C08037FA
:101B300019F0883721F0B0C0E92FE061BE2EB4FE65
:101B40000DC0FB2DF460BF2E09C034FE0AC0292F42
:101B50002660B22E06C028E030E005C020E130E06B
:101B600002C020E132E0F801B7FE07C06081718158
:101B7000828193810C5F1F4F06C06081718180E07C
:101B800090E00E5F1F4FA3010E94A80E882E8618BA
:101B9000FB2DFF773F2E36FE0DC0232D2E7FA22E6C
:101BA000891458F434FE0BC032FC09C0832D8E7E9C
:101BB000A82E05C0B82CA32C03C0B82C01C0B92C8A
:101BC000A4FE0FC0FE01E80DF11D8081803321F4D9
:101BD0009A2D997EA92E09C0A2FE06C0B394B39493
:101BE00004C08A2D867809F0B394A3FC11C0A0FE2E
:101BF00006C0B21488F4280C922C9B180EC0B214A4
:101C000060F4B60180E290E00E946C0EB394F7CFCE
:101C1000B21418F42B1802C0982C212CA4FE10C06A
:101C2000B60180E390E00E946C0EA2FE17C0A1FCFA
:101C300003C088E790E002C088E590E0B6010CC0E0
:101C40008A2D867859F0A1FE02C08BE201C080E2A5
:101C5000A7FC8DE2B60190E00E946C0E891438F466
:101C6000B60180E390E00E946C0E9A94F7CF8A94BC
:101C7000F301E80DF11D8081B60190E00E946C0E29
:101C80008110F5CF222009F442CEB60180E290E027
:101C90000E946C0E2A94F6CFF6018681978102C0CD
:101CA0008FEF9FEF2B96E2E10C94220FFC01059041
:101CB000615070400110D8F7809590958E0F9F1F4E
:101CC0000895FC016150704001900110D8F7809593
:101CD00090958E0F9F1F08950F931F93CF93DF93BF
:101CE000FB01238121FD03C08FEF9FEF2CC022FF5A
:101CF00016C046815781248135814217530744F429
:101D0000A081B1819D012F5F3F4F318320838C9350
:101D1000268137812F5F3F4F3783268314C08B0185
:101D2000EC01FB010084F185E02D0995892BE1F69A
:101D3000D80116968D919C911797019617969C93B2
:101D40008E931697CE01DF91CF911F910F91089539
:101D5000FA01AA27283051F1203181F1E8946F93DC
:101D60006E7F6E5F7F4F8F4F9F4FAF4FB1E03ED082
:101D7000B4E03CD0670F781F891F9A1FA11D680F20
:101D8000791F8A1F911DA11D6A0F711D811D911D53
:101D9000A11D20D009F468943F912AE0269F1124C8
:101DA0003019305D3193DEF6CF010895462F47702C
:101DB000405D4193B3E00FD0C9F7F6CF462F4F7087
:101DC000405D4A3318F0495D31FD4052419302D0E5
:101DD000A9F7EACFB4E0A69597958795779567958B
:101DE000BA95C9F700976105710508959B01AC018B
:101DF0000A2E06945795479537952795BA95C9F7B2
:101E0000620F731F841F951FA01D08952F923F928C
:101E10004F925F926F927F928F929F92AF92BF92FA
:101E2000CF92DF92EF92FF920F931F93CF93DF93A6
:101E3000CDB7DEB7CA1BDB0B0FB6F894DEBF0FBE03
:101E4000CDBF09942A88398848885F846E847D8450
:101E50008C849B84AA84B984C884DF80EE80FD8052
:101E60000C811B81AA81B981CE0FD11D0FB6F894C8
:0E1E7000DEBF0FBECDBFED010895F894FFCF89
:101E7E004D6561737572696E6700202020004361A5
:101E8E007061636974616E63653A004F70656E00D0
:101E9E00546F6F20626967007046006E460075468B
:101EAE00006D4600496E64756374616E63653A0039
:101EBE006E48007548006D480025642C2025642C62
:0E1ECE00202564004C43204D657465720000B1
:00000001FF
